{
  "contractName": "Agent",
  "abi": [
    {
      "constant": false,
      "inputs": [],
      "name": "renounceOwnership",
      "outputs": [],
      "payable": false,
      "stateMutability": "nonpayable",
      "type": "function"
    },
    {
      "constant": true,
      "inputs": [],
      "name": "owner",
      "outputs": [
        {
          "name": "",
          "type": "address"
        }
      ],
      "payable": false,
      "stateMutability": "view",
      "type": "function"
    },
    {
      "constant": true,
      "inputs": [],
      "name": "isOwner",
      "outputs": [
        {
          "name": "",
          "type": "bool"
        }
      ],
      "payable": false,
      "stateMutability": "view",
      "type": "function"
    },
    {
      "constant": false,
      "inputs": [
        {
          "name": "newOwner",
          "type": "address"
        }
      ],
      "name": "transferOwnership",
      "outputs": [],
      "payable": false,
      "stateMutability": "nonpayable",
      "type": "function"
    },
    {
      "anonymous": false,
      "inputs": [
        {
          "indexed": false,
          "name": "uuid",
          "type": "bytes32"
        },
        {
          "indexed": false,
          "name": "baseAssetType",
          "type": "string"
        },
        {
          "indexed": false,
          "name": "baseAssetAmount",
          "type": "uint256"
        },
        {
          "indexed": false,
          "name": "baseAssetAddr",
          "type": "address"
        }
      ],
      "name": "buyOrder",
      "type": "event"
    },
    {
      "anonymous": false,
      "inputs": [
        {
          "indexed": false,
          "name": "uuid",
          "type": "bytes32"
        },
        {
          "indexed": false,
          "name": "addr",
          "type": "address"
        },
        {
          "indexed": false,
          "name": "filledAmount",
          "type": "uint256"
        }
      ],
      "name": "buyOrderFilled",
      "type": "event"
    },
    {
      "anonymous": false,
      "inputs": [
        {
          "indexed": false,
          "name": "uuid",
          "type": "bytes32"
        },
        {
          "indexed": false,
          "name": "baseAssetType",
          "type": "string"
        },
        {
          "indexed": false,
          "name": "baseAssetAmount",
          "type": "uint256"
        },
        {
          "indexed": false,
          "name": "baseAssetAddr",
          "type": "address"
        }
      ],
      "name": "sellOrder",
      "type": "event"
    },
    {
      "anonymous": false,
      "inputs": [
        {
          "indexed": false,
          "name": "uuid",
          "type": "bytes32"
        },
        {
          "indexed": false,
          "name": "takenAmount",
          "type": "uint256"
        }
      ],
      "name": "SellTaken",
      "type": "event"
    },
    {
      "anonymous": false,
      "inputs": [
        {
          "indexed": false,
          "name": "uuid",
          "type": "bytes32"
        },
        {
          "indexed": false,
          "name": "filledAmount",
          "type": "uint256"
        }
      ],
      "name": "SellOrderFilled",
      "type": "event"
    },
    {
      "anonymous": false,
      "inputs": [
        {
          "indexed": true,
          "name": "previousOwner",
          "type": "address"
        },
        {
          "indexed": true,
          "name": "newOwner",
          "type": "address"
        }
      ],
      "name": "OwnershipTransferred",
      "type": "event"
    },
    {
      "constant": true,
      "inputs": [
        {
          "name": "addr",
          "type": "address"
        }
      ],
      "name": "getDeposit",
      "outputs": [
        {
          "name": "",
          "type": "uint256"
        }
      ],
      "payable": false,
      "stateMutability": "view",
      "type": "function"
    },
    {
      "constant": true,
      "inputs": [
        {
          "name": "uuid",
          "type": "bytes32"
        },
        {
          "name": "sender",
          "type": "address"
        }
      ],
      "name": "getFilledAmount",
      "outputs": [
        {
          "name": "",
          "type": "uint256"
        }
      ],
      "payable": false,
      "stateMutability": "view",
      "type": "function"
    },
    {
      "constant": false,
      "inputs": [
        {
          "name": "uuid",
          "type": "bytes32"
        },
        {
          "name": "baseAssetType",
          "type": "string"
        },
        {
          "name": "baseAssetAmount",
          "type": "uint256"
        },
        {
          "name": "baseAssetAddr",
          "type": "address"
        }
      ],
      "name": "buyOrderSent",
      "outputs": [
        {
          "name": "",
          "type": "bool"
        }
      ],
      "payable": false,
      "stateMutability": "nonpayable",
      "type": "function"
    },
    {
      "constant": false,
      "inputs": [
        {
          "name": "uuid",
          "type": "bytes32"
        },
        {
          "name": "baseAssetType",
          "type": "string"
        },
        {
          "name": "baseAssetAmount",
          "type": "uint256"
        },
        {
          "name": "baseAssetAddr",
          "type": "address"
        }
      ],
      "name": "sellOrderSent",
      "outputs": [
        {
          "name": "",
          "type": "bool"
        }
      ],
      "payable": false,
      "stateMutability": "nonpayable",
      "type": "function"
    },
    {
      "constant": false,
      "inputs": [
        {
          "name": "uuid",
          "type": "bytes32"
        },
        {
          "name": "takenAmount",
          "type": "uint256"
        }
      ],
      "name": "SellOrderTaken",
      "outputs": [
        {
          "name": "",
          "type": "bool"
        }
      ],
      "payable": false,
      "stateMutability": "nonpayable",
      "type": "function"
    },
    {
      "constant": false,
      "inputs": [
        {
          "name": "uuid",
          "type": "bytes32"
        },
        {
          "name": "addr",
          "type": "address"
        },
        {
          "name": "filledAmount",
          "type": "uint256"
        }
      ],
      "name": "buyOrderConfirmed",
      "outputs": [
        {
          "name": "",
          "type": "bool"
        }
      ],
      "payable": false,
      "stateMutability": "nonpayable",
      "type": "function"
    },
    {
      "constant": false,
      "inputs": [
        {
          "name": "uuid",
          "type": "bytes32"
        },
        {
          "name": "filledAmount",
          "type": "uint256"
        }
      ],
      "name": "SellOrderConfirmed",
      "outputs": [
        {
          "name": "",
          "type": "bool"
        }
      ],
      "payable": false,
      "stateMutability": "nonpayable",
      "type": "function"
    },
    {
      "constant": false,
      "inputs": [
        {
          "name": "_payee",
          "type": "address"
        }
      ],
      "name": "close",
      "outputs": [],
      "payable": false,
      "stateMutability": "nonpayable",
      "type": "function"
    }
  ],
  "bytecode": "0x6080604052336000806101000a81548173ffffffffffffffffffffffffffffffffffffffff021916908373ffffffffffffffffffffffffffffffffffffffff1602179055506000809054906101000a900473ffffffffffffffffffffffffffffffffffffffff1673ffffffffffffffffffffffffffffffffffffffff16600073ffffffffffffffffffffffffffffffffffffffff167f8be0079c531659141344cd1fd0a4f28419497f9722a3daafe3b4186f6b6457e060405160405180910390a3611cef806100cf6000396000f3fe608060405234801561001057600080fd5b50600436106100b45760003560e01c8063a57d9c7a11610071578063a57d9c7a1461023f578063b94eae55146102a1578063c74073a1146103a8578063e1254fba146103ec578063f2193dc814610444578063f2fde38b1461054b576100b4565b806334676ed4146100b95780633655b8771461010957806361c8023614610179578063715018a6146101c95780638da5cb5b146101d35780638f32d59b1461021d575b600080fd5b6100ef600480360360408110156100cf57600080fd5b81019080803590602001909291908035906020019092919050505061058f565b604051808215151515815260200191505060405180910390f35b61015f6004803603606081101561011f57600080fd5b8101908080359060200190929190803573ffffffffffffffffffffffffffffffffffffffff169060200190929190803590602001909291905050506108eb565b604051808215151515815260200191505060405180910390f35b6101af6004803603604081101561018f57600080fd5b810190808035906020019092919080359060200190929190505050610d20565b604051808215151515815260200191505060405180910390f35b6101d1611102565b005b6101db61123b565b604051808273ffffffffffffffffffffffffffffffffffffffff1673ffffffffffffffffffffffffffffffffffffffff16815260200191505060405180910390f35b610225611264565b604051808215151515815260200191505060405180910390f35b61028b6004803603604081101561025557600080fd5b8101908080359060200190929190803573ffffffffffffffffffffffffffffffffffffffff1690602001909291905050506112bb565b6040518082815260200191505060405180910390f35b61038e600480360360808110156102b757600080fd5b8101908080359060200190929190803590602001906401000000008111156102de57600080fd5b8201836020820111156102f057600080fd5b8035906020019184600183028401116401000000008311171561031257600080fd5b91908080601f016020809104026020016040519081016040528093929190818152602001838380828437600081840152601f19601f82011690508083019250505050505050919291929080359060200190929190803573ffffffffffffffffffffffffffffffffffffffff16906020019092919050505061131c565b604051808215151515815260200191505060405180910390f35b6103ea600480360360208110156103be57600080fd5b81019080803573ffffffffffffffffffffffffffffffffffffffff1690602001909291905050506114fa565b005b61042e6004803603602081101561040257600080fd5b81019080803573ffffffffffffffffffffffffffffffffffffffff16906020019092919050505061158d565b6040518082815260200191505060405180910390f35b6105316004803603608081101561045a57600080fd5b81019080803590602001909291908035906020019064010000000081111561048157600080fd5b82018360208201111561049357600080fd5b803590602001918460018302840111640100000000831117156104b557600080fd5b91908080601f016020809104026020016040519081016040528093929190818152602001838380828437600081840152601f19601f82011690508083019250505050505050919291929080359060200190929190803573ffffffffffffffffffffffffffffffffffffffff1690602001909291905050506115d6565b604051808215151515815260200191505060405180910390f35b61058d6004803603602081101561056157600080fd5b81019080803573ffffffffffffffffffffffffffffffffffffffff169060200190929190505050611a2e565b005b6000816001600085815260200190815260200160002060050160003373ffffffffffffffffffffffffffffffffffffffff1673ffffffffffffffffffffffffffffffffffffffff1681526020019081526020016000206000018190555060006001600085815260200190815260200160002060030160009054906101000a900473ffffffffffffffffffffffffffffffffffffffff1690506000819050838173ffffffffffffffffffffffffffffffffffffffff1663dd62ed3e33306040518363ffffffff1660e01b8152600401808373ffffffffffffffffffffffffffffffffffffffff1673ffffffffffffffffffffffffffffffffffffffff1681526020018273ffffffffffffffffffffffffffffffffffffffff1673ffffffffffffffffffffffffffffffffffffffff1681526020019250505060206040518083038186803b1580156106de57600080fd5b505afa1580156106f2573d6000803e3d6000fd5b505050506040513d602081101561070857600080fd5b8101908080519060200190929190505050101561072457600080fd5b83600260003373ffffffffffffffffffffffffffffffffffffffff1673ffffffffffffffffffffffffffffffffffffffff1681526020019081526020016000205401600260003373ffffffffffffffffffffffffffffffffffffffff1673ffffffffffffffffffffffffffffffffffffffff168152602001908152602001600020819055508073ffffffffffffffffffffffffffffffffffffffff166323b872dd3330876040518463ffffffff1660e01b8152600401808473ffffffffffffffffffffffffffffffffffffffff1673ffffffffffffffffffffffffffffffffffffffff1681526020018373ffffffffffffffffffffffffffffffffffffffff1673ffffffffffffffffffffffffffffffffffffffff1681526020018281526020019350505050602060405180830381600087803b15801561086457600080fd5b505af1158015610878573d6000803e3d6000fd5b505050506040513d602081101561088e57600080fd5b8101908080519060200190929190505050507ff5b121344be6a9d676d2de20452ed1f246b2a489b779090613b6d2f8138cf1348585604051808381526020018281526020019250505060405180910390a160019250505092915050565b60003373ffffffffffffffffffffffffffffffffffffffff166001600086815260200190815260200160002060000160009054906101000a900473ffffffffffffffffffffffffffffffffffffffff1673ffffffffffffffffffffffffffffffffffffffff161415610cbe57816001600086815260200190815260200160002060050160008573ffffffffffffffffffffffffffffffffffffffff1673ffffffffffffffffffffffffffffffffffffffff16815260200190815260200160002060010154146109b957600080fd5b6001600085815260200190815260200160002060050160008473ffffffffffffffffffffffffffffffffffffffff1673ffffffffffffffffffffffffffffffffffffffff1681526020019081526020016000206000808201600090556001820160009055505081600260003373ffffffffffffffffffffffffffffffffffffffff1673ffffffffffffffffffffffffffffffffffffffff168152602001908152602001600020541015610a6b57600080fd5b60006001600086815260200190815260200160002060030160009054906101000a900473ffffffffffffffffffffffffffffffffffffffff1690506000819050838173ffffffffffffffffffffffffffffffffffffffff166370a08231306040518263ffffffff1660e01b8152600401808273ffffffffffffffffffffffffffffffffffffffff1673ffffffffffffffffffffffffffffffffffffffff16815260200191505060206040518083038186803b158015610b2957600080fd5b505afa158015610b3d573d6000803e3d6000fd5b505050506040513d6020811015610b5357600080fd5b81019080805190602001909291905050501015610b6f57600080fd5b83600260003373ffffffffffffffffffffffffffffffffffffffff1673ffffffffffffffffffffffffffffffffffffffff1681526020019081526020016000205403600260003373ffffffffffffffffffffffffffffffffffffffff1673ffffffffffffffffffffffffffffffffffffffff168152602001908152602001600020819055508073ffffffffffffffffffffffffffffffffffffffff1663a9059cbb86866040518363ffffffff1660e01b8152600401808373ffffffffffffffffffffffffffffffffffffffff1673ffffffffffffffffffffffffffffffffffffffff16815260200182815260200192505050602060405180830381600087803b158015610c7b57600080fd5b505af1158015610c8f573d6000803e3d6000fd5b505050506040513d6020811015610ca557600080fd5b8101908080519060200190929190505050505050610d15565b816001600086815260200190815260200160002060050160003373ffffffffffffffffffffffffffffffffffffffff1673ffffffffffffffffffffffffffffffffffffffff16815260200190815260200160002050505b600190509392505050565b6000806001600085815260200190815260200160002060030160009054906101000a900473ffffffffffffffffffffffffffffffffffffffff169050826001600086815260200190815260200160002060050160003373ffffffffffffffffffffffffffffffffffffffff1673ffffffffffffffffffffffffffffffffffffffff1681526020019081526020016000206000015414610dbe57600080fd5b82600260003373ffffffffffffffffffffffffffffffffffffffff1673ffffffffffffffffffffffffffffffffffffffff168152602001908152602001600020541015610e0a57600080fd5b6001600085815260200190815260200160002060050160003373ffffffffffffffffffffffffffffffffffffffff1673ffffffffffffffffffffffffffffffffffffffff168152602001908152602001600020600080820160009055600182016000905550506000819050838173ffffffffffffffffffffffffffffffffffffffff166370a08231306040518263ffffffff1660e01b8152600401808273ffffffffffffffffffffffffffffffffffffffff1673ffffffffffffffffffffffffffffffffffffffff16815260200191505060206040518083038186803b158015610ef357600080fd5b505afa158015610f07573d6000803e3d6000fd5b505050506040513d6020811015610f1d57600080fd5b81019080805190602001909291905050501015610f3957600080fd5b83600260003373ffffffffffffffffffffffffffffffffffffffff1673ffffffffffffffffffffffffffffffffffffffff1681526020019081526020016000205403600260003373ffffffffffffffffffffffffffffffffffffffff1673ffffffffffffffffffffffffffffffffffffffff168152602001908152602001600020819055508073ffffffffffffffffffffffffffffffffffffffff1663a9059cbb6001600088815260200190815260200160002060000160009054906101000a900473ffffffffffffffffffffffffffffffffffffffff16866040518363ffffffff1660e01b8152600401808373ffffffffffffffffffffffffffffffffffffffff1673ffffffffffffffffffffffffffffffffffffffff16815260200182815260200192505050602060405180830381600087803b15801561107b57600080fd5b505af115801561108f573d6000803e3d6000fd5b505050506040513d60208110156110a557600080fd5b8101908080519060200190929190505050507ff5064df5d30d89a66d9c683e7f1e1eba3db7a52ba048bd81758fb8b72b88b5418585604051808381526020018281526020019250505060405180910390a160019250505092915050565b61110a611264565b61117c576040517f08c379a00000000000000000000000000000000000000000000000000000000081526004018080602001828103825260208152602001807f4f776e61626c653a2063616c6c6572206973206e6f7420746865206f776e657281525060200191505060405180910390fd5b600073ffffffffffffffffffffffffffffffffffffffff166000809054906101000a900473ffffffffffffffffffffffffffffffffffffffff1673ffffffffffffffffffffffffffffffffffffffff167f8be0079c531659141344cd1fd0a4f28419497f9722a3daafe3b4186f6b6457e060405160405180910390a360008060006101000a81548173ffffffffffffffffffffffffffffffffffffffff021916908373ffffffffffffffffffffffffffffffffffffffff160217905550565b60008060009054906101000a900473ffffffffffffffffffffffffffffffffffffffff16905090565b60008060009054906101000a900473ffffffffffffffffffffffffffffffffffffffff1673ffffffffffffffffffffffffffffffffffffffff163373ffffffffffffffffffffffffffffffffffffffff1614905090565b60006001600084815260200190815260200160002060050160008373ffffffffffffffffffffffffffffffffffffffff1673ffffffffffffffffffffffffffffffffffffffff16815260200190815260200160002060010154905092915050565b6000336001600087815260200190815260200160002060000160006101000a81548173ffffffffffffffffffffffffffffffffffffffff021916908373ffffffffffffffffffffffffffffffffffffffff1602179055508360016000878152602001908152602001600020600101908051906020019061139d929190611bf8565b50826001600087815260200190815260200160002060020181905550816001600087815260200190815260200160002060030160006101000a81548173ffffffffffffffffffffffffffffffffffffffff021916908373ffffffffffffffffffffffffffffffffffffffff1602179055507f94ac5d66eff571ab3c4859f35a0b6fd66c8ac26bfe064eb62a30da39a02227b28585858560405180858152602001806020018481526020018373ffffffffffffffffffffffffffffffffffffffff1673ffffffffffffffffffffffffffffffffffffffff168152602001828103825285818151815260200191508051906020019080838360005b838110156114b1578082015181840152602081019050611496565b50505050905090810190601f1680156114de5780820380516001836020036101000a031916815260200191505b509550505050505060405180910390a160019050949350505050565b611502611264565b611574576040517f08c379a00000000000000000000000000000000000000000000000000000000081526004018080602001828103825260208152602001807f4f776e61626c653a2063616c6c6572206973206e6f7420746865206f776e657281525060200191505060405180910390fd5b8073ffffffffffffffffffffffffffffffffffffffff16ff5b6000600260008373ffffffffffffffffffffffffffffffffffffffff1673ffffffffffffffffffffffffffffffffffffffff168152602001908152602001600020549050919050565b6000336001600087815260200190815260200160002060000160006101000a81548173ffffffffffffffffffffffffffffffffffffffff021916908373ffffffffffffffffffffffffffffffffffffffff16021790555083600160008781526020019081526020016000206001019080519060200190611657929190611bf8565b50826001600087815260200190815260200160002060020181905550816001600087815260200190815260200160002060030160006101000a81548173ffffffffffffffffffffffffffffffffffffffff021916908373ffffffffffffffffffffffffffffffffffffffff1602179055506000829050838173ffffffffffffffffffffffffffffffffffffffff1663dd62ed3e33306040518363ffffffff1660e01b8152600401808373ffffffffffffffffffffffffffffffffffffffff1673ffffffffffffffffffffffffffffffffffffffff1681526020018273ffffffffffffffffffffffffffffffffffffffff1673ffffffffffffffffffffffffffffffffffffffff1681526020019250505060206040518083038186803b15801561177f57600080fd5b505afa158015611793573d6000803e3d6000fd5b505050506040513d60208110156117a957600080fd5b810190808051906020019092919050505010156117c557600080fd5b83600260003373ffffffffffffffffffffffffffffffffffffffff1673ffffffffffffffffffffffffffffffffffffffff1681526020019081526020016000205401600260003373ffffffffffffffffffffffffffffffffffffffff1673ffffffffffffffffffffffffffffffffffffffff168152602001908152602001600020819055508073ffffffffffffffffffffffffffffffffffffffff166323b872dd3330876040518463ffffffff1660e01b8152600401808473ffffffffffffffffffffffffffffffffffffffff1673ffffffffffffffffffffffffffffffffffffffff1681526020018373ffffffffffffffffffffffffffffffffffffffff1673ffffffffffffffffffffffffffffffffffffffff1681526020018281526020019350505050602060405180830381600087803b15801561190557600080fd5b505af1158015611919573d6000803e3d6000fd5b505050506040513d602081101561192f57600080fd5b8101908080519060200190929190505050507fd5002d85f84dd2d37b8933c4ea5569629c1007d2d947d84e63e2ca2074f16acc8686868660405180858152602001806020018481526020018373ffffffffffffffffffffffffffffffffffffffff1673ffffffffffffffffffffffffffffffffffffffff168152602001828103825285818151815260200191508051906020019080838360005b838110156119e45780820151818401526020810190506119c9565b50505050905090810190601f168015611a115780820380516001836020036101000a031916815260200191505b509550505050505060405180910390a16001915050949350505050565b611a36611264565b611aa8576040517f08c379a00000000000000000000000000000000000000000000000000000000081526004018080602001828103825260208152602001807f4f776e61626c653a2063616c6c6572206973206e6f7420746865206f776e657281525060200191505060405180910390fd5b611ab181611ab4565b50565b600073ffffffffffffffffffffffffffffffffffffffff168173ffffffffffffffffffffffffffffffffffffffff161415611b3a576040517f08c379a0000000000000000000000000000000000000000000000000000000008152600401808060200182810382526026815260200180611c9e6026913960400191505060405180910390fd5b8073ffffffffffffffffffffffffffffffffffffffff166000809054906101000a900473ffffffffffffffffffffffffffffffffffffffff1673ffffffffffffffffffffffffffffffffffffffff167f8be0079c531659141344cd1fd0a4f28419497f9722a3daafe3b4186f6b6457e060405160405180910390a3806000806101000a81548173ffffffffffffffffffffffffffffffffffffffff021916908373ffffffffffffffffffffffffffffffffffffffff16021790555050565b828054600181600116156101000203166002900490600052602060002090601f016020900481019282601f10611c3957805160ff1916838001178555611c67565b82800160010185558215611c67579182015b82811115611c66578251825591602001919060010190611c4b565b5b509050611c749190611c78565b5090565b611c9a91905b80821115611c96576000816000905550600101611c7e565b5090565b9056fe4f776e61626c653a206e6577206f776e657220697320746865207a65726f2061646472657373a165627a7a72305820b92b4d83bf925e1ff2fcb4a9e15ce8b3cd2e2326a3e3727ea7a2f894d1d4a6240029",
  "source": "pragma solidity ^0.5.0;\r\n\r\nimport \"./Ownable.sol\";\r\nimport \"./IERC20.sol\";\r\n\r\n// contract Stabletoken {\r\n//     function transfer(address recipient, uint256 amount);\r\n//     function allowance(address owner, address spender);\r\n//     function transferFrom(address sender, address recipient, uint256 amount);\r\n\r\n// }\r\ncontract Agent is Ownable {\r\n\r\n    // event buyOrderSent(uint256 uuid, string baseAssetType, uint256 baseAssetAmount,address baseAssetAddr,string quoteAssetType,\r\n    //                    uint256 quoteAssetAmount,string walletAddr,string walletMemo);\r\n\r\n    // event buyOrderTaken(uint256 uuid,string walletAddr,string walletMemo);\r\n    // event buyOrderConfirmed(uint256 uuid,address addr,uint256 filledAmount);\r\n\r\n    event buyOrder(bytes32 uuid, string baseAssetType, uint256 baseAssetAmount,address baseAssetAddr);\r\n\r\n    //event buyOrderTaken(uint256 uuid);\r\n    event buyOrderFilled(bytes32 uuid,address addr,uint256 filledAmount);\r\n\r\n    event sellOrder(bytes32 uuid,string baseAssetType,uint256 baseAssetAmount,address baseAssetAddr);\r\n    event SellTaken(bytes32 uuid,uint256 takenAmount);\r\n    event SellOrderFilled(bytes32 uuid,uint256 filledAmount); \r\n\r\n\r\n    // struct Wallet {\r\n    //     string addr;\r\n    //     string memo;\r\n    // }\r\n\r\n    struct OrderTakenDetail {\r\n        uint256 takenAmount;\r\n        uint256 filledAmount;\r\n        //Wallet relayWalllet;\r\n    }\r\n\r\n    \r\n\tstruct Order {\r\n\r\n        address trader;\r\n        string baseAssetType;\r\n        uint256 baseAssetAmount;\r\n        address baseAssetAddr;  //stable coin token based on ERC20\r\n        //string quoteAssetType;\r\n        //uint256 quoteAssetAmount;\r\n        //Wallet walletAddr;\r\n        address[] relays;\r\n        mapping (address => OrderTakenDetail) relayOrder; \r\n\r\n    } \r\n\r\n    mapping (bytes32 => Order) private _orderDetail;\r\n\r\n    //This is very important to ensure no one can mimic fake buy and sell order/confirm to steal money from this contract!\r\n    mapping (address => uint256) private _deposit;\r\n\r\n    function getDeposit(\r\n        address addr\r\n    ) \r\n        external\r\n        view\r\n        returns (uint256) \r\n    {\r\n        return _deposit[addr];\r\n    }\r\n\r\n    function getFilledAmount(\r\n        bytes32 uuid,\r\n        address sender\r\n    )\r\n        external\r\n        view\r\n        returns (uint256)\r\n    {\r\n        return _orderDetail[uuid].relayOrder[sender].filledAmount;\r\n    }\r\n\r\n\r\n\tfunction buyOrderSent(\r\n        bytes32 uuid, \r\n        string memory baseAssetType,\r\n        uint256 baseAssetAmount,\r\n        address baseAssetAddr)\r\n        //string quoteAssetType,\r\n        //uint256 quoteAssetAmount,\r\n        //string walletAddr,\r\n        //string walletMemo\r\n        public \r\n        returns (bool) \r\n    {\r\n  \t\t\r\n  \t\t_orderDetail[uuid].trader = msg.sender;\r\n        _orderDetail[uuid].baseAssetType = baseAssetType;\r\n        _orderDetail[uuid].baseAssetAmount = baseAssetAmount;\r\n        _orderDetail[uuid].baseAssetAddr = baseAssetAddr;\r\n        //orderDetail[uuid].quoteAssetType = quoteAssetType;\r\n        //orderDetail[uuid].quoteAssetAmount = quoteAssetAmount;\r\n        //orderDetail[uuid].walletAddr.addr = walletAddr; \r\n\r\n        \r\n        IERC20 stableConotract = IERC20(baseAssetAddr);\r\n        require (stableConotract.allowance(msg.sender,address(this))>=baseAssetAmount);\r\n        _deposit[msg.sender] = _deposit[msg.sender]+baseAssetAmount;\r\n        stableConotract.transferFrom(msg.sender,address(this),baseAssetAmount);\r\n        \r\n        //buyOrderSent(uuid,baseAssetType,baseAssetAmount,baseAssetAddr,quoteAssetType,quoteAssetAmount,\r\n        //            walletAddr,walletMemo);\r\n        emit buyOrder(uuid,baseAssetType,baseAssetAmount,baseAssetAddr);\r\n\r\n  \t\treturn true;\r\n\t}\r\n\r\n    function sellOrderSent(\r\n        bytes32 uuid,\r\n        string memory baseAssetType,\r\n        uint256 baseAssetAmount,\r\n        address baseAssetAddr\r\n        //string quoteAssetType,\r\n        //uint256 quoteAssetAmount,\r\n        //string walletAddr,\r\n        //string walletMemo\r\n    ) \r\n        public \r\n        returns (bool) \r\n    {\r\n        \r\n        _orderDetail[uuid].trader = msg.sender;\r\n        _orderDetail[uuid].baseAssetType = baseAssetType;\r\n        _orderDetail[uuid].baseAssetAmount = baseAssetAmount;\r\n        _orderDetail[uuid].baseAssetAddr = baseAssetAddr;\r\n        //orderDetail[uuid].quoteAssetType = quoteAssetType;\r\n        //orderDetail[uuid].quoteAssetAmount = quoteAssetAmount;\r\n        //orderDetail[uuid].walletAddr.addr = walletAddr; \r\n        emit sellOrder(uuid,baseAssetType,baseAssetAmount,baseAssetAddr);\r\n        return true;\r\n    }\r\n\r\n\r\n\r\n\t// function buyOrderTaken(\r\n //        uint256 uuid,\r\n //        string walletAddr,\r\n //        string walletMemo\r\n //    ) \r\n //        public \r\n //        returns (bool) \r\n //    {\r\n //        orderDetail[uuid].relays.push(msg.sender);\r\n //  \t\torderDetail[uuid].relayOrder[msg.sender].filledAmount = 0;\r\n //        orderDetail[uuid].relayOrder[msg.sender].relayWalllet.addr = walletAddr;\r\n //        orderDetail[uuid].relayOrder[msg.sender].relayWalllet.memo = walletMemo;\r\n\r\n //        buyOrderTaken(uuid,walletAddr,walletMemo);\r\n //        return true;\r\n\t// }\r\n\r\n    function SellOrderTaken(\r\n        bytes32 uuid,\r\n        //string quoteAssetType,\r\n        uint256 takenAmount\r\n        //string walletAddr,\r\n        //string walletMemo\r\n    ) \r\n        public \r\n        returns (bool) \r\n    {\r\n        //orderDetail[uuid].relays.push(msg.sender);\r\n        _orderDetail[uuid].relayOrder[msg.sender].takenAmount =takenAmount;\r\n        //orderDetail[uuid].relayOrder[msg.sender].relayWalllet.addr = walletAddr;\r\n        //orderDetail[uuid].relayOrder[msg.sender].relayWalllet.memo = walletMemo;\r\n\r\n        // uint256 baseAssetType = orderDetail[uuid].baseAssetType;\r\n        // uint256 baseAssetAmount = orderDetail[uuid].baseAssetAmount;\r\n\r\n        address baseAssetAddr=_orderDetail[uuid].baseAssetAddr;\r\n        //orderDetail[uuid].quoteAssetType = quoteAssetType;\r\n        //orderDetail[uuid].quoteAssetAmount = quoteAssetAmount;\r\n\r\n        IERC20 stableConotract = IERC20(baseAssetAddr);\r\n        require (stableConotract.allowance(msg.sender,address(this))>=takenAmount);\r\n        _deposit[msg.sender] = _deposit[msg.sender]+takenAmount;\r\n        stableConotract.transferFrom(msg.sender,address(this),takenAmount);\r\n\r\n        emit SellTaken(uuid,takenAmount);\r\n        return true;\r\n    }\r\n\r\n    function buyOrderConfirmed(\r\n        bytes32 uuid,\r\n        address addr,\r\n        uint256 filledAmount\r\n    ) \r\n        public \r\n        returns (bool) \r\n    {\r\n        if (_orderDetail[uuid].trader==msg.sender)\r\n        {\r\n            require(_orderDetail[uuid].relayOrder[addr].filledAmount == filledAmount);\r\n            //uint256 amountTransfer = orderDetail[uuid].baseAssetAmount*filledAmount/orderDetail[uuid].quoteAssetAmount\r\n            delete _orderDetail[uuid].relayOrder[addr];\r\n            require (_deposit[msg.sender]>=filledAmount);\r\n            address baseAssetAddr = _orderDetail[uuid].baseAssetAddr;\r\n            IERC20 stableConotract = IERC20(baseAssetAddr);\r\n            require (stableConotract.balanceOf(address(this))>=filledAmount);\r\n            _deposit[msg.sender] = _deposit[msg.sender] -filledAmount;\r\n            stableConotract.transfer(addr,filledAmount);\r\n        }\r\n        else\r\n        {\r\n            _orderDetail[uuid].relayOrder[msg.sender].filledAmount == filledAmount;\r\n\r\n\r\n        }\r\n\r\n\r\n        return true;\r\n    }\r\n\r\n    function SellOrderConfirmed(\r\n        bytes32 uuid,\r\n        uint256 filledAmount\r\n    ) \r\n        public \r\n        returns (bool) \r\n    {\r\n        address baseAssetAddr = _orderDetail[uuid].baseAssetAddr;\r\n        require( _orderDetail[uuid].relayOrder[msg.sender].takenAmount ==filledAmount);\r\n        require (_deposit[msg.sender]>=filledAmount);\r\n        delete _orderDetail[uuid].relayOrder[msg.sender];\r\n        IERC20 stableConotract = IERC20(baseAssetAddr);\r\n        require (stableConotract.balanceOf(address(this))>=filledAmount);\r\n        _deposit[msg.sender] = _deposit[msg.sender] -filledAmount;\r\n        stableConotract.transfer(_orderDetail[uuid].trader,filledAmount);\r\n        emit SellOrderFilled(uuid,filledAmount); \r\n        return true;\r\n    }\r\n\r\n    function close(address payable _payee) public onlyOwner { //onlyOwner is custom modifier\r\n        selfdestruct(_payee);  // `owner` is the owners address\r\n    }\r\n\r\n}",
  "sourcePath": "C:/Users/hchen/ethapp/ExchangeHub/contracts/Agent.sol",
  "compiler": {
    "name": "solc",
    "version": "0.5.8+commit.23d335f2.Emscripten.clang"
  },
  "schemaVersion": "3.0.11",
  "updatedAt": "2019-09-12T10:43:05.058Z",
  "devdoc": {
    "methods": {
      "isOwner()": {
        "details": "Returns true if the caller is the current owner."
      },
      "owner()": {
        "details": "Returns the address of the current owner."
      },
      "renounceOwnership()": {
        "details": "Leaves the contract without owner. It will not be possible to call `onlyOwner` functions anymore. Can only be called by the current owner.     * > Note: Renouncing ownership will leave the contract without an owner, thereby removing any functionality that is only available to the owner."
      },
      "transferOwnership(address)": {
        "details": "Transfers ownership of the contract to a new account (`newOwner`). Can only be called by the current owner."
      }
    }
  },
  "userdoc": {
    "methods": {}
  }
}